S022000074696E796B32305F4F70656E506E505F4175746F4665656465722E737265632F
S113000000000020B91400002D330000E93B00007B
S1130010493300006133000079330000913300005C
S1130020A9330000C1330000D93300005952000045
S1130030F133000009340000795200000552000039
S113004021340000393400005134000069340000C8
S11300508134000099340000B1340000C934000038
S1130060E1340000F93400001135000029350000A6
S11300704135000059350000713500008935000014
S1130080E1200000E1200000A1350000B9350000A6
S11300902926000029260000D1350000E93500009A
S11300A001360000193600003136000049360000E0
S11300B06136000079360000BD4200009136000030
S11300C0A9360000C1360000D9360000F136000020
S11300D0093700002137000039370000513700008C
S11300E0693700008137000099370000B1370000FC
S10B00F0C9370000E1370000EC
S113041010B5054C237833B9044B13B10448AFF33A
S113042000800123237010BD8CE0FF1F000000003A
S11304301C6E000008B5064B1BB106480649AFF315
S113044000800648036813B1054B03B1984708BD03
S1130450000000001C6E000090E0FF1F8CE0FF1FF6
S113046000000000154B002B08BF134B9D46A3F55D
S1130470803A00218B460F461348144A121A06F09C
S1130480AEF80F4B002B00D098470E4B002B00D03A
S113049098470020002104000D000D48002802D0D8
S11304A00C48AFF3008006F06BF82000290000F040
S11304B0FFFD06F051F800BF000008000000002016
S11304C000000000000000008CE0FF1F44F7FF1F45
S11304D0000000000000000010F8012B11F8013B9F
S11304E0012A28BF9A42F7D0D01A704780B582B04B
S11304F000AF41F288337B601C48002100F01AFCF5
S1130500012000F0CDFC4FF47A7005F08DFB184B00
S1130510DB68184602F03CFA0346002B1ED001208B
S1130520642100F02BFE4FF4FA7005F07DFB7B682C
S1130530A3F5FA737B607B68002B07DA0D48012171
S113054000F0F8FB0C4800F027F907E0084BDB68E3
S1130550184602F01DFA0346002BE4D101200021C5
S113056000F00CFE0837BD4680BD00BF30660000B9
S113057030E3FF1F406600006066000080B582B073
S113058000AF41F288337B603448002100F0D2FB95
S113059001206FF0630100F0F1FD4FF4487005F0A5
S11305A043FB2F4BDB68184602F0F2F90346002B9D
S11305B018D1642005F038FB7B68643B7B607B6862
S11305C0002B07DA2748012100F0B4FB264800F08D
S11305D0E3F807E0224BDB68184602F0D9F903463A
S11305E0002BE6D00120002100F0C8FD4FF0FF30C1
S11305F000F056FC4FF47A7005F016FB41F2883394
S11306007B60174BDB68184602F0C2F90346002BE7
S11306101CD00120642100F0B1FD642005F004FB2E
S11306207B68643B7B607B68002B07DA0F48012101
S113063000F080FB0E4800F0AFF807E0084BDB68E1
S1130640184602F0A5F90346002BE6D1012000214B
S113065000F094FD0837BD4680BD00BF78660000F9
S113066030E3FF1F88660000AC660000C866000027
S1130670EC66000080B584B000AF78600023FB60B6
S1130680234B5B68184602F0FBF80346002B0CD1A1
S1130690642005F0C9FA1E4B5B68184602F0F0F8B6
S11306A00346002B01D1FFF721FF194B9B68184625
S11306B002F02AF90346002B0CD1642005F0B4FAA9
S11306C0134B9B68184602F01FF90346002B01D117
S11306D0FFF754FFFB68002B08D10D4B1B6818462D
S11306E002F094F8FB680133FB600DE0FB68322BE9
S11306F007D10023FB60064B1B68184602F078F80C
S113070002E0FB680133FB60142005F08DFAB7E7C3
S113071030E3FF1F80B400AFBD465DF8047B704733
S113072080B582B002AF01230093002301930648F1
S113073006497D22002305F041F90346012B00D030
S1130740FEE705F097FAFEE775060000086700006B
S113075080B400AFBD465DF8047B704780B483B0BD
S113076000AF786039604FF0500080F31188FEE7E5
S113077080B400AFBD465DF8047B704780B400AF21
S1130780BD465DF8047B704780B400AF4FF0500065
S113079080F31188FEE700BF80B592B000AF7860A7
S11307A007F10803184640210B4A04F01FF907F12A
S11307B00803184640217A6804F03CF902F068FC0A
S11307C003465B6807F108021046194602F052FA24
S11307D04837BD4680BD00BF0C67000080B592B0AD
S11307E000AF786007F10803184640210E4A04F070
S11307F0FDF807F10803184640217A6804F01AF955
S113080007F1080318464021084A04F013F902F0DE
S11308103FFC03465B6807F108021046194602F0E4
S113082029FA4837BD4680BD1867000020670000DC
S113083080B582B000AF78607B685B68124813496A
S11308401A4602F0EDFC7B685B68114811491A46B0
S113085002F0E6FC7B685B680F4810491A4602F018
S1130860DFFC7B685B680E480E491A4602F0D8FC30
S11308707B685B680C480D491A4602F0D1FC0023E2
S113088018460837BD4680BD24670000286700006D
S11308904067000050670000746700008467000030
S11308A0B4670000C4670000F4670000FC67000040
S11308B080B582B000AF78607B685B680B480C49F8
S11308C01A4602F0BFFC7B685B680A480A491A466C
S11308D002F0B8FC7B685B680548194602F0CAF967
S11308E0002318460837BD4680BD00BF18680000C5
S11308F020680000246800002C68000080B598B0CF
S113090000AFF860B9607A60F868A649FFF7E4FDC3
S11309100346002B06D0F868A349FFF7DDFD034624
S1130920002B07D1BB6801221A707868FFF780FF9B
S1130930034632E1F8689D49FFF7CEFD0346002BDC
S113094006D0F8689A49FFF7C7FD0346002B07D184
S1130950BB6801221A707868FFF7AAFF03461CE1FE
S1130960F8689449042205F04AFE0346002B40F03F
S11309700D81FB6804333B6507F1500207F158030E
S11309801046194604F064F9034687F85F3097F877
S11309905F30002B40F0D580BB6D002B40F0D18040
S11309A03B6D18468449052205F029FE0346002BB9
S11309B054D13B6D05333B6507F1500207F15403F5
S11309C01046194604F044F9034687F85F3097F857
S11309D05F30002B3DD17B6D012B3ADD7B6D03F045
S11309E00103002B35D13B6D18467449FFF774FDA4
S11309F00346002B04D07248FFF7CEFE1B23CCE045
S1130A007B6DDA0F13445B10DBB25BB2184600F067
S1130A1047FA07F13003184620216A4A03F0E6FF3B
S1130A207B6D07F13002104620211A4604F062F86B
S1130A3007F1300318462021604A03F0FBFF07F159
S1130A4030031846FFF7CAFEBB6801221A70002360
S1130A50A3E05D48FFF7A0FE03239EE03B6D18462C
S1130A605A49052205F0CBFD0346002B54D13B6DBA
S1130A7005333B6507F1500207F15403104619464C
S1130A8004F0E6F8034687F85F3097F85F30002BF0
S1130A903DD17B6D012B3ADD7B6D03F00103002B0F
S1130AA035D13B6D18464549FFF716FD0346002B2B
S1130AB004D04348FFF770FE1B236EE07B6DDA0F12
S1130AC013445B10DBB25BB2184600F0E9F907F19E
S1130AD03003184620213E4A03F088FF7B6D07F15E
S1130AE03002104620211A4604F004F807F13003BE
S1130AF018462021314A03F09DFF07F130031846C0
S1130B00FFF76CFEBB6801221A70002345E02E48F3
S1130B10FFF742FE032340E03B6D18462D49FFF7E3
S1130B20DBFC0346002B07D12B48FFF757FEBB68BD
S1130B3001221A70002330E02848FFF72DFE03231A
S1130B402BE007F11003184620211A4A03F04EFF48
S1130B50BB6D013B07F11002104620211A4603F039
S1130B60C9FF3B6D07F11002104620211A4603F01D
S1130B7061FF7B685B6807F110021046194602F0BA
S1130B8079F8BB6801221A70002306E01448FFF7C5
S1130B9003FEBB6801221A701B2318466037BD464A
S1130BA080BD00BF346800003C6800004868000055
S1130BB0506800005C680000646800006C68000015
S1130BC0706800008C68000094680000A868000049
S1130BD0B0680000B8680000C0680000C468000085
S1130BE0D468000080B588B000AFF860B9607A605E
S1130BF00023FB777B68002B01D11B2368E0F86896
S1130C0005F0F5FCB861FA68BB691A44B968BB69B8
S1130C10CB1AF86811461A467B6802F0EFF80346CF
S1130C20002B54D0F86805F0E2FCB861BB69002BD6
S1130C3001D11B234CE0BB69012B0AD1FB681B7853
S1130C400A2B03D0FB681B780D2B02D1FB68002212
S1130C501A70BB685A1EBB699A4212D807F117036F
S1130C60F86819467A68FFF749FE7B685B681A489A
S1130C70194601F0FFFFFB6800221A700423FB777A
S1130C8025E0BB69013BFA6813441B780A2B06D0A4
S1130C90BB69013BFA6813441B780D2B17D1BB6960
S1130CA0013BFA68134400221A7007F11703F8682D
S1130CB019467A68FFF722FE0346FB777B685B6878
S1130CC00548194601F0D6FFFB6800221A70FB7F25
S1130CD018462037BD4680BD2068000080B500AFAF
S1130CE000F0F0FE0346002B0CBF00230123DBB20F
S1130CF0184680BD80B582B000AF0346FB71FB7916
S1130D001846034902F0EAFA0837BD4680BD00BF21
S1130D10E919000080B582B000AF7860786800F00F
S1130D20F7FD0346002B02D07B6800221A700837B7
S1130D30BD4680BD80B584B000AF78600B46FB70C3
S1130D400023FB601CE0FB78002B09D00F49FA68F4
S1130D5013465B0013449B000B441B689B6808E02C
S1130D600A49FA6813465B0013449B000B441B6852
S1130D705B687868194601F07DFFFB680133FB600E
S1130D80FB68012BDFD91037BD4680BD846D0000A0
S1130D9090B585B000AF78600023FB600CE0234978
S1130DA0FA6813465B0013449B000B445B68002203
S1130DB01A70FB680133FB60FB68012BEFD91C48F8
S1130DC00021FFF7B7FF0023FB601FE01749FA6813
S1130DD013465B0013449B000B4458681349FA689C
S1130DE013465B0013449B000B44083319680F4CF3
S1130DF0FA6813465B0013449B0023441B681A469D
S1130E000C4B02F0C1F9FB680133FB60FB68012B5A
S1130E10DCD902F03DF90346074840211A46FFF7A2
S1130E20E1FE0A2004F000FFCDE700BF846D00005E
S1130E30E46800009C6D0000A8E0FF1F80B582B04C
S1130E4002AF134A124B9B6823F0807323F0010313
S1130E5043F0010393600E4A0D4B9B6823F08073AB
S1130E6023F0020343F0020393600A4B00221A703A
S1130E70012300930023019307480849AF2200236C
S1130E8004F09CFD0346012B00D0FEE7BD4680BD67
S1130E9000C00440A8E0FF1F910D0000FC680000A2
S1130EA080B582B000AF0346FB71084B1A68FB1D86
S1130EB0104619464FF0FF32002304F0ADFA034602
S1130EC0012B00D0FEE70837BD4680BD18E1FF1FA7
S1130ED080B586B000AF786000237B610023FB609F
S1130EE041F288333B61554B1B69184601F094FD70
S1130EF00346002B25D052480021FFF71BFF00209A
S1130F00642100F03BF941F288333B610DE001209C
S1130F1004F08AFE3B69013B3B613B69002B04DA28
S1130F2048480121FFF706FF07E0444B1B691846B8
S1130F3001F072FD0346002BE9D10020002100F0EE
S1130F401DF93E4B1B69184601F066FD0346002B54
S1130F5002D07B6901337B613B4B1A6807F10B03B9
S1130F60104619464FF0FF3204F02CFB0346012BC8
S1130F7004D036480121FFF7DDFE5AE056E041F285
S1130F8088333B61FB7A5BB2002B01DB642300E016
S1130F909C235BB20020194600F0F0F80DE001201C
S1130FA004F042FE3B69013B3B613B69002B04DAE0
S1130FB027480121FFF7BEFE07E0204B1B691846B6
S1130FC001F02AFD0346002BE9D041F288333B614E
S1130FD00DE03B69013B3B613B69002B04DA1C4893
S1130FE00121FFF7A7FE0AE0012004F01DFE134BC8
S1130FF01B69184601F010FD0346002BE9D10020BF
S1131000002100F0BBF8FB7A5BB2002B05DAFB7A17
S1131010DBB20133DBB2FB7208E0FB7A5BB2002B7C
S113102004DDFB7ADBB2013BDBB2FB72FB7A002B03
S1131030A5D1012004F0F8FD83E700BF30E3FF1FD2
S1131040046900002469000018E1FF1F44690000DE
S11310507069000080B582B002AF0A20012100222D
S113106004F082F902460E4B1A600D4B1B68002BEC
S113107000D1FEE70A4B1B6818460A4904F076FCC7
S11310800223009300230193074808497D2200238B
S113109004F094FC0346012B00D0FEE7BD4680BD5E
S11310A018E1FF1F94690000D10E0000A069000040
S11310B080B500AF02F068FC00F028F9FFF72AFBC6
S11310C0FFF72EFB04F0D6FDFEE700BF80B584B029
S11310D000AF0346FB710123FB73FB79002B02D1A4
S11310E00123FB7304E0FB79012B01D10023FB7383
S11310F00A4B1B78002B06D0FB7B002B14BF00236C
S11311000123DBB2FB73064BDA69FB7B10461946FD
S113111001F0CCFC1037BD4680BD00BF00E0FF1FCE
S113112030E3FF1F80B584B000AF0346FB71012399
S1131130FB73FB79002B02D10123FB7304E0FB79E1
S1131140012B01D10023FB730A4B1B78002B06D023
S1131150FB7B002B14BF00230123DBB2FB73064B84
S11311601A6AFB7B1046194601F0ECFC1037BD46A9
S113117080BD00BF1CE1FF1F30E3FF1F80B584B0BA
S113118000AF02460B46FA71BB7197F90630642B27
S113119002DD6423BB7106E097F9063013F1640F96
S11311A001DA9C23BB7197F90630002B03DABB7973
S11311B05B42FB7301E0BB79FB73FA7B13461B04B0
S11311C09B1A194A82FB03125211DB17D31ABB6014
S11311D0FB79002B0FD1BB79DB09DBB21846FFF793
S11311E075FF124B9A69BB689BB21046194602F010
S11311F05DFF012313E0FB79012B0FD1BB79DB09E0
S1131200DBB21846FFF78EFF084B5A6ABB689BB2E5
S11312101046194602F0B2FF012300E000231846ED
S11312201037BD4680BD00BF1F85EB5130E3FF1F63
S113123080B586B000AF3B1D184602F085FD03461D
S1131240FB75FB7D002B00D0FEE73B1D18462849AB
S113125002F010FE0346002B06D0264B00221A7023
S1131260254B01221A7032E03B1D1846234902F037
S113127001FE0346002B06D01E4B01221A701E4BA2
S113128000221A7023E03B1D18461D4902F0F2FDAE
S11312900346002B06D0174B00221A70164B00226F
S11312A01A7014E03B1D1846164902F0E3FD03468C
S11312B0002B06D00F4B00221A700F4B01221A701C
S11312C005E00C4B01221A700B4B00221A700E4BD6
S11312D09B6A184601F080FC00200021FFF74EFFB6
S11312E001200021FFF74AFF1837BD4680BD00BF2B
S11312F0AC6D000000E0FF1F1CE1FF1FBC6D00008F
S1131300CC6D0000DC6D000030E3FF1F80B500AF42
S1131310FFF794FDFFF79EFEFFF78AFF80BD00BF35
S113132080B48BB000AFF860B9607A607B687B6290
S113133004233B620323FB610223BB6101237B6122
S113134001233B61FA68BB689A4202D07B68002B98
S113135000D151E04DE0BA68FB691340002B19D16C
S1131360FA68FB691340002B14D17A6A3B6A9A42EB
S113137010D3FB68BA6812681A60FA683B6A1344AF
S1131380FB60BA683B6A1344BB607A6A3B6AD31A4F
S11313907B622EE0BA687B691340002B19D1FA688E
S11313A07B691340002B14D17A6ABB699A4210D32B
S11313B0FB68BA6812881A80FA68BB691344FB6038
S11313C0BA68BB691344BB607A6ABB69D31A7B628F
S11313D00FE0FB68BA6812781A70FA683B69134424
S11313E0FB60BA683B691344BB607A6A3B69D31AF1
S11313F07B627B6A002BAED12C37BD465DF8047B43
S1131400704700BF90B583B000AF244B002B00D1D0
S113141040E000237B601EE020497A6813465B00AD
S113142013449B000B4458681C497A6813465B00BC
S113143013449B000B441968184C7A6813465B00EC
S113144013449B00234408331B681A46FFF768FFC4
S11314507B6801337B6011497A6813465B0013444F
S11314609B000B441B68002BD6D10C497A681346A9
S11314705B0013449B000B445B68002BCCD10749F1
S11314807A6813465B0013449B000B4408331B68C3
S1131490002BC1D10C37BD4690BD00BFD06E0000FB
S11314A080B400AFBD465DF8047B704780B400AFE4
S11314B0BD465DF8047B70470B4C2046002800F0C5
S11314C00880854681B04FF000006FEA000000906C
S11314D001B0FFF7E5FF02F08FF9FFF793FFFFF785
S11314E0E5FFFEF7BFFFFEE70000002080B500AF78
S11314F0034B1B6818460349012200F0DFFC80BD42
S113150090F6FF1F68E1FF1F80B485B000AF7860DC
S11315100023FB732C4B1B88002B4BD0EFF3138061
S113152071B6B873294B1B78DBB20133DBB2274A9F
S113153019461170012B02D1BA7B254B1A70224B2C
S11315401B88013B9AB2204B1A80224B1B885A1CE1
S113155091B2204A1180204AD25C7B681A701D4BDC
S11315601B883F2B02D91B4B00221A801B4B1B8864
S11315701A4640F641031340002B01D0192300E022
S11315800023FB73154B1B8823F4046323F0090326
S11315909AB2124B1A800D4B1B78DBB2013BDBB2C3
S11315A00A4A19461170002B06D1094B187880F3AA
S11315B0138801E00A2300E0FB7B18461437BD467C
S11315C05DF8047B704700BF20E1FF1FF4E2FF1FBA
S11315D098F6FF1F22E1FF1F28E1FF1F1EE1FF1FF6
S11315E080B584B000AF0346FB712C4B1B88402BA5
S11315F001D10B234EE0EFF3138071B6F873284B3F
S11316001B78DBB20133DBB2254A19461170012B7A
S113161002D1FA7B234B1A70204B1B8801339AB2F8
S11316201E4B1A80204B1B885A1C91B21E4A1180F3
S11316301E4AF979D1541C4B1B883F2B02D91A4BF3
S113164000221A801A4B1B8803F02003002B12D1AE
S1131650174B1B8843F020039AB2154B1A80154B85
S11316601A68154B1B881946104B0B441046194633
S1131670012200F06BFC0A4B1B78DBB2013BDBB2AE
S1131680074A19461170002B03D1064B187880F3D2
S11316901388002318461037BD4680BD6AE1FF1F3A
S11316A0F4E2FF1F98F6FF1F6EE1FF1F70E1FF1FBA
S11316B01EE1FF1F90F6FF1F6CE1FF1F80B400AF17
S11316C0034B1B881846BD465DF8047B704700BF7A
S11316D020E1FF1F80B500AF0E4B00221A800E4B95
S11316E000221A800D4B00221A800D4B00221A8012
S11316F00C4B00221A800C4B00221A800B4B002248
S11317001A80002000F0FAFA0246094B1A60FFF72B
S1131710EDFE80BD1EE1FF1F20E1FF1F22E1FF1F40
S113172024E1FF1F6AE1FF1F6CE1FF1F6EE1FF1F51
S113173090F6FF1F80B582B000AF7860164B1B880F
S11317403F2B17D8144B1B8801339AB2124B1A80C3
S1131750124B1B885A1C91B2104A1180104A1178FE
S1131760104AD1540D4B1B883F2B0AD90B4B002236
S11317701A8006E00C4B1B8843F040039AB20A4BD4
S11317801A800A4B1B6818460549012200F096FB93
S11317900837BD4680BD00BF20E1FF1F24E1FF1FC5
S11317A068E1FF1F28E1FF1F1EE1FF1F90F6FF1FE6
S11317B080B582B000AF78601A4B1B8801339AB2AF
S11317C0184B1A80174B1B883F2B02D9154B00224C
S11317D01A80154B1B88013B9AB2134B1A80124B8B
S11317E01B88002B13D0114B1B8843F020039AB2A3
S11317F00E4B1A800E4B1A680A4B1B8819460D4B68
S11318000B4410461946012200F0A0FB06E0074BEA
S11318101B8803F0DF039AB2044B1A800837BD46D5
S113182080BD00BF6CE1FF1F6AE1FF1F1EE1FF1FC7
S113183090F6FF1F70E1FF1F80B584B000AF7860A1
S1131840214B1A6807F10C031046194600F0C2FC3C
S1131850FB68002B34D0FB6803F00203002B01D09B
S1131860042300E00023194A128813439AB2174B49
S11318701A80FB6803F00803002B01D0802300E0EA
S11318800023124A128813439AB2104B1A80FB6841
S11318909BB203F001039AB20C4B1B8813439AB218
S11318A00A4B1A80FB6803F00403002B01D00223C7
S11318B000E00023054A128813439AB2034B1A80AE
S11318C01037BD4680BD00BF90F6FF1F1EE1FF1F0D
S11318D080B483B000AF7860054B1B8843F00203EB
S11318E09AB2034B1A800C37BD465DF8047B7047EF
S11318F01EE1FF1F80B500AF034B1B681846034968
S1131900012200F07FFD80BD94F6FF1FF8E1FF1F68
S113191080B485B000AF78600023FB732C4B1B8828
S1131920002B4BD0EFF3138071B6B873294B1B789F
S1131930DBB20133DBB2274A19461170012B02D105
S1131940BA7B254B1A70224B1B88013B9AB2204B61
S11319501A80224B1B885A1C91B2204A1180204ABB
S1131960D25C7B681A701D4B1B883F2B02D91B4B22
S113197000221A801B4B1B881A4640F64103134071
S1131980002B01D0192300E00023FB73154B1B88A7
S113199023F4046323F009039AB2124B1A800D4B0B
S11319A01B78DBB2013BDBB20A4A19461170002BEB
S11319B006D1094B187880F3138801E00A2300E06C
S11319C0FB7B18461437BD465DF8047B704700BFA7
S11319D0B2E1FF1FF4E2FF1F98F6FF1FB4E1FF1FFF
S11319E0B8E1FF1FB0E1FF1F80B584B000AF03462C
S11319F0FB712C4B1B88802B01D10B234EE0EFF3A2
S1131A00138071B6F873284B1B78DBB20133DBB259
S1131A10254A19461170012B02D1FA7B234B1A7007
S1131A20204B1B8801339AB21E4B1A80204B1B8813
S1131A305A1C91B21E4A11801E4AF979D1541C4B8A
S1131A401B887F2B02D91A4B00221A801A4B1B8841
S1131A5003F02003002B12D1174B1B8843F0200303
S1131A609AB2154B1A80154B1A68154B1B881946E8
S1131A70104B0B4410461946012200F00BFD0A4B93
S1131A801B78DBB2013BDBB2074A19461170002B0D
S1131A9003D1064B187880F31388002318461037B7
S1131AA0BD4680BDFAE1FF1FF4E2FF1F98F6FF1F59
S1131AB0FEE1FF1F00E2FF1FB0E1FF1F94F6FF1FCE
S1131AC0FCE1FF1F80B400AF034B1B881846BD46E2
S1131AD05DF8047B704700BFB2E1FF1F80B500AF23
S1131AE00E4B00221A800E4B00221A800D4B00224E
S1131AF01A800D4B00221A800C4B00221A800C4BCA
S1131B0000221A800B4B00221A80002000F09AFB5E
S1131B100246094B1A60FFF7EDFE80BDB0E1FF1FDE
S1131B20B2E1FF1FB4E1FF1FB6E1FF1FFAE1FF1F9F
S1131B30FCE1FF1FFEE1FF1F94F6FF1F80B582B09A
S1131B4000AF7860164B1B883F2B17D8144B1B88AB
S1131B5001339AB2124B1A80124B1B885A1C91B251
S1131B60104A1180104A1178104AD1540D4B1B8829
S1131B703F2B0AD90B4B00221A8006E00C4B1B8822
S1131B8043F040039AB20A4B1A800A4B1B6818466A
S1131B900549012200F036FC0837BD4680BD00BF70
S1131BA0B2E1FF1FB6E1FF1FF8E1FF1FB8E1FF1F1D
S1131BB0B0E1FF1F94F6FF1F80B582B000AF7860DC
S1131BC01A4B1B8801339AB2184B1A80174B1B8887
S1131BD07F2B02D9154B00221A80154B1B88013B21
S1131BE09AB2134B1A80124B1B88002B13D0114B43
S1131BF01B8843F020039AB20E4B1A800E4B1A68CE
S1131C000A4B1B8819460D4B0B44104619460122FA
S1131C1000F040FC06E0074B1B8803F0DF039AB298
S1131C20044B1A800837BD4680BD00BFFCE1FF1F8E
S1131C30FAE1FF1FB0E1FF1F94F6FF1F00E2FF1F50
S1131C4080B584B000AF7860214B1A6807F10C03AB
S1131C501046194600F062FDFB68002B34D0FB6887
S1131C6003F00203002B01D0042300E00023194AEF
S1131C70128813439AB2174B1A80FB6803F00803C7
S1131C80002B01D0802300E00023124A1288134362
S1131C909AB2104B1A80FB689BB203F001039AB20C
S1131CA00C4B1B8813439AB20A4B1A80FB6803F04F
S1131CB00403002B01D0022300E00023054A12880C
S1131CC013439AB2034B1A801037BD4680BD00BF40
S1131CD094F6FF1FB0E1FF1F80B483B000AF7860BB
S1131CE0054B1B8843F002039AB2034B1A800C374E
S1131CF0BD465DF8047B7047B0E1FF1F80B485B03A
S1131D0000AF7860654BFB60FB6800221A81FB68BA
S1131D1000221A82FB680022DA60FB6800225A82E1
S1131D20FB6800221A83FB6800225A61FB687A6808
S1131D30DA615B4BFA681A605A4BFA681A605A49BE
S1131D40594B03F5815314331B6843F4806201F546
S1131D50815314331A60554A544B9B6923F08073A2
S1131D6023F4E06343F440739361504A4F4BDB69BF
S1131D7023F0807323F4E06343F44073D3614C4B4A
S1131D80102283F810234A4B494A126842F48032E5
S1131D901A60474B102283F81123454B444A1268BA
S1131DA042F400321A60434B424AD278D2B222F053
S1131DB00802D2B2DA703F4B3E4AD278D2B222F055
S1131DC00402D2B2DA70FB6800221A80FB68002297
S1131DD05A60384B00229A70364B00229A71354B68
S1131DE000229A72334B00225A71324B00225A73EA
S1131DF0304B304A927AD2B2D2B222F01F02D2B21F
S1131E0042F00C02D2B2D2B29A722A4B294A127808
S1131E10D2B222F01F02D2B21A70264B51225A704B
S1131E20244B244A127CD2B262F07702D2B21A74E2
S1131E30204B204A527CD2B262F03F02D2B25A7492
S1131E401C4B1C4AD278D2B2D2B242F00802D2B2AF
S1131E50D2B2DA70174B174AD278D2B2D2B242F069
S1131E600402D2B2D2B2DA70124B124AD278D2B28F
S1131E7042F02002D2B2DA700E4B0E4A9279D2B2FC
S1131E8042F00F02D2B29A710B4BFA681A63FB68E4
S1131E9018461437BD465DF8047B704780E2FF1F87
S1131EA0A0E2FF1FA4E2FF1F0070044000C0044032
S1131EB000E100E000A0064030E3FF1F80B487B0DB
S1131EC000AFF860B9601346FB80FB687B61FB8858
S1131ED0002B01D184232EE07B691B8A002B01D0C7
S1131EE0082328E0EFF3138071B6F874154B1B78C0
S1131EF0DBB20133DBB2134A19461170012B02D154
S1131F00FA7C114B1A707B69BA68DA607B69FA88CB
S1131F101A827B6900221A810A4B1B78DBB2013BCF
S1131F20DBB2084A19461170002B03D1064B18780E
S1131F3080F31388002318461C37BD465DF8047BE4
S1131F40704700BFF4E2FF1F98F6FF1F80B487B00C
S1131F5000AFF860B9601346FB80FB687B61FB88C7
S1131F60002B01D1842342E07B691B8B002B01D021
S1131F7008233CE0EFF3138071B6F8741F4B1B7811
S1131F80DBB20133DBB21D4A19461170012B02D1B9
S1131F90FA7C1B4B1A707B69BA685A617B69FA88B0
S1131FA01A837B6900225A827B691B8843F00103F0
S1131FB09AB27B691A80134B124AD278D2B262F079
S1131FC07F02D2B2DA700F4B0E4A9279D2B29A7172
S1131FD00A4B1B78DBB2013BDBB2084A194611708D
S1131FE0002B03D1064B187880F31388002318467E
S1131FF01C37BD465DF8047B704700BFF4E2FF1F49
S113200098F6FF1F00A0064090B583B000AF78603B
S1132010124BDB79DBB21C467B681B8A002B1AD07F
S11320207B68DB68591C7A68D160E2B21A707B68FD
S11320301B8901339AB27B681A817B681A897B6891
S11320401B8A9A4207D17B6800221A827B68DB696B
S11320501846FFF76FFB0C37BD4690BD00A0064045
S113206080B582B000AF78607B685A8A7B681B8B2E
S11320709A421CD2194A7B685B69581C796848618A
S11320801B78D3717B685B8A01339AB27B685A826E
S11320907B685A8A7B681B8B9A421CD17B6800221E
S11320A01A837B68DB691846FFF782FB13E00B4B4E
S11320B00A4AD278D2B202F07F02D2B2DA70074B67
S11320C0064A9279D2B29A717B681B8823F0010385
S11320D09AB27B681A800837BD4680BD00A00640CE
S11320E0684620F007018D462DE9F14183B000AF29
S11320F0364B1B687B60364B1B79DBB21C460025D4
S1132100002604F00F03002B46D0314BDB79DBB201
S1132110984604F00203002B14D004F02003002B93
S11321200DD0B8F1000F0AD133460133DEB27B681B
S11321301B8843F002039AB27B681A8002E045F0E0
S113214004039DB204F00803002B02D045F0010300
S11321509DB204F00103002B02D045F002039DB2AE
S113216004F00403002B02D045F008039DB27B6801
S11321705A682B461A437B685A6024F02004002EC8
S113218005D07B68DB691846FFF7A2FB04E07B6897
S1132190DB691846FFF750FB04F02003002B02D044
S11321A07868FFF731FF7B681B8803F00103002B7D
S11321B006D004F08003002B02D07868FFF750FFAC
S11321C00C37BD46BDE8F14185467047A0E2FF1FCC
S11321D000A0064080B485B000AF786039607B68A9
S11321E0FB60EFF3138071B6F872144B1B78DBB20B
S11321F00133DBB2114A19461170012B02D1FA7A6C
S11322000F4B1A70FB685A683B681A60FB6800221F
S11322105A600A4B1B78DBB2013BDBB2074A194612
S11322201170002B03D1064B187880F31388002318
S113223018461437BD465DF8047B7047F4E2FF1F6F
S113224098F6FF1F80B485B000AF7860654BFB60E3
S1132250FB6800221A81FB6800221A82FB680022B4
S1132260DA60FB6800225A82FB6800221A83FB684A
S113227000225A61FB687A68DA615B4BFA681A607B
S11322805A4BFA681A605A49594B03F5815314336F
S11322901B6843F4805201F5815314331A60554A84
S11322A0544B9B6823F0807323F4E06343F440733E
S11322B09360504A4F4BDB6823F0807323F4E06350
S11322C043F44073D3604C4B202283F814234A4BCD
S11322D0494A126842F480121A60474B202283F85C
S11322E01523454B444A126842F400121A60434BCA
S11322F0424AD278D2B222F00802D2B2DA703F4B0C
S11323003E4AD278D2B222F00402D2B2DA70FB682A
S113231000221A80FB6800225A60384B00229A700F
S1132320364B00229A71354B00229A72334B0022AD
S11323305A71324B00225A73304B304A927AD2B2DD
S1132340D2B222F01F02D2B242F01602D2B2D2B2FC
S11323509A722A4B294A1278D2B222F01F02D2B2C0
S11323601A70264B28225A70244B244A127CD2B26B
S113237062F07702D2B21A74204B204A527CD2B255
S113238062F03F02D2B25A741C4B1C4AD278D2B2C9
S1132390D2B242F00802D2B2D2B2DA70174B174A64
S11323A0D278D2B2D2B242F00402D2B2D2B2DA704D
S11323B0124B124AD278D2B242F02002D2B2DA7070
S11323C00E4B0E4A9279D2B242F00F02D2B29A71F7
S11323D00B4BFA68DA63FB6818461437BD465DF8A0
S11323E0047B7047A8E2FF1FC8E2FF1FCCE2FF1F77
S11323F00070044000C0044000E100E000C006405A
S113240030E3FF1F80B487B000AFF860B9601346B3
S1132410FB80FB687B61FB88002B01D184232EE0C9
S11324207B691B8A002B01D0082328E0EFF313807B
S113243071B6F874154B1B78DBB20133DBB2134A67
S113244019461170012B02D1FA7C114B1A707B6969
S1132450BA68DA607B69FA881A827B6900221A8179
S11324600A4B1B78DBB2013BDBB2084A19461170F8
S1132470002B03D1064B187880F3138800231846E9
S11324801C37BD465DF8047B704700BFF4E2FF1FB4
S113249098F6FF1F80B487B000AFF860B9601346A8
S11324A0FB80FB687B61FB88002B01D1842342E025
S11324B07B691B8B002B01D008233CE0EFF31380D6
S11324C071B6F8741F4B1B78DBB20133DBB21D4AC3
S11324D019461170012B02D1FA7C1B4B1A707B69CF
S11324E0BA685A617B69FA881A837B6900225A8226
S11324F07B691B8843F001039AB27B691A80134BF2
S1132500124AD278D2B262F07F02D2B2DA700F4BA2
S11325100E4A9279D2B29A710A4B1B78DBB2013B14
S1132520DBB2084A19461170002B03D1064B187808
S113253080F31388002318461C37BD465DF8047BDE
S1132540704700BFF4E2FF1F98F6FF1F00C006406B
S113255090B583B000AF7860124BDB79DBB21C46D8
S11325607B681B8A002B1AD07B68DB68591C7A684D
S1132570D160E2B21A707B681B8901339AB27B681E
S11325801A817B681A897B681B8A9A4207D17B6807
S113259000221A827B68DB691846FFF7CFFA0C37F2
S11325A0BD4690BD00C0064080B582B000AF7860E3
S11325B07B685A8A7B681B8B9A421CD2194A7B68B7
S11325C05B69581C796848611B78D3717B685B8AA6
S11325D001339AB27B685A827B685A8A7B681B8B68
S11325E09A421CD17B6800221A837B68DB691846F7
S11325F0FFF7E2FA13E00B4B0A4AD278D2B202F0A8
S11326007F02D2B2DA70074B064A9279D2B29A713B
S11326107B681B8823F001039AB27B681A80083711
S1132620BD4680BD00C00640684620F007018D46C7
S11326302DE9F14183B000AF364B1B687B60364B0C
S11326401B79DBB21C460025002604F00F03002B87
S113265046D0314BDB79DBB2984604F00203002B01
S113266014D004F02003002B0DD0B8F1000F0AD1D0
S113267033460133DEB27B681B8843F002039AB20F
S11326807B681A8002E045F004039DB204F008035D
S1132690002B02D045F001039DB204F00103002B8E
S11326A002D045F002039DB204F00403002B02D0D3
S11326B045F008039DB27B685A682B461A437B6831
S11326C05A6024F02004002E05D07B68DB6918468C
S11326D0FFF702FB04E07B68DB691846FFF7B0FAFA
S11326E004F02003002B02D07868FFF731FF7B68E9
S11326F01B8803F00103002B06D004F08003002B99
S113270002D07868FFF750FF0C37BD46BDE8F141B1
S113271085467047C8E2FF1F00C0064080B485B0FC
S113272000AF786039607B68FB60EFF3138071B6AB
S1132730F872144B1B78DBB20133DBB2114A194631
S11327401170012B02D1FA7A0F4B1A70FB685A6888
S11327503B681A60FB6800225A600A4B1B78DBB2A4
S1132760013BDBB2074A19461170002B03D1064B1B
S1132770187880F31388002318461437BD465DF893
S1132780047B7047F4E2FF1F98F6FF1F80B485B006
S113279000AF7860124BFB60FB687A681A60114BDB
S11327A0104A526942F001025A610E4B0D4A1268F6
S11327B022F001021A600C4A0B4B1B6823F0807351
S11327C023F4E06343F480731360084BFA681A60DF
S11327D0FB6818461437BD465DF8047B704700BF9C
S11327E0D0E2FF1FC0F00F4000C0044030E3FF1FE1
S11327F080B483B000AF7860034B01229A600C3739
S1132800BD465DF8047B7047C0F00F4080B483B0D0
S113281000AF7860034B01225A600C37BD465DF867
S1132820047B7047C0F00F4080B485B000AF78607F
S11328300F4BFB60FB687A681A600E4B0D4A5269B5
S113284022F040025A610C4A0B4B9B6923F08073BF
S113285023F4E06343F480739361084BFA685A608D
S1132860FB6818461437BD465DF8047B704700BF0B
S1132870D4E2FF1F80F00F4000B0044030E3FF1F9C
S113288080B485B000AF7860084B1B6903F0400347
S1132890FB60FB68002B0CBF00230123DBB218464E
S11328A01437BD465DF8047B704700BF80F00F40CD
S11328B080B485B000AF78600F4BFB60FB687A682A
S11328C01A600E4B0D4A526922F080025A610C4A7A
S11328D00B4BDB6923F0807323F4E06343F48073D0
S11328E0D361084BFA689A60FB6818461437BD46F2
S11328F05DF8047B704700BFD8E2FF1F80F00F40F3
S113290000B0044030E3FF1F80B485B000AF7860AE
S1132910084B1B6903F08003FB60FB68002B0CBFB2
S113292000230123DBB218461437BD465DF8047B4F
S1132930704700BF80F00F4080B485B000AF78606E
S11329400F4BFB60FB687A681A600E4B0D4A5269A4
S113295022F020025A610C4A0B4B5B6923F080730E
S113296023F4E06343F480735361084BFA68DA603C
S1132970FB6818461437BD465DF8047B704700BFFA
S1132980DCE2FF1F80F00F4000B0044030E3FF1F83
S113299080B485B000AF7860084B1B6903F0200356
S11329A0FB60FB68002B0CBF00230123DBB218463D
S11329B01437BD465DF8047B704700BF80F00F40BC
S11329C080B485B000AF78600F4BFB60FB687A6819
S11329D01A600E4B0D4A526922F010025A610C4AD9
S11329E00B4B1B6923F0807323F4E06343F480737F
S11329F01361084BFA681A61FB6818461437BD4620
S1132A005DF8047B704700BFE0E2FF1F80F00F40D9
S1132A1000B0044030E3FF1F80B485B000AF78609D
S1132A20084B1B6903F01003FB60FB68002B0CBF11
S1132A3000230123DBB218461437BD465DF8047B3E
S1132A40704700BF80F00F4080B485B000AF78605D
S1132A50124BFB60FB687A681A60114B104A52698A
S1132A6042F480325A610E4B0D4A126822F48032CD
S1132A701A600C4A0B4B1B6C23F0807323F4E06345
S1132A8043F480731364084BFA68DA61FB681846F0
S1132A901437BD465DF8047B704700BFE4E2FF1FB6
S1132AA040F00F4000A0044030E3FF1F80B483B027
S1132AB000AF78600B46FB70FB78002B04D0074B0B
S1132AC04FF480325A6003E0044B4FF480329A6032
S1132AD00C37BD465DF8047B704700BF40F00F40E3
S1132AE080B485B000AF7860124BFB60FB687A68F5
S1132AF01A60114B104A526942F004025A610E4B9B
S1132B000D4A126822F004021A600C4A0B4B9B68AF
S1132B1023F0807323F4E06343F480739360084BE1
S1132B20FA681A62FB6818461437BD465DF8047BE0
S1132B30704700BFE8E2FF1F80F00F4000B0044080
S1132B4030E3FF1F80B483B000AF78600B46FB70A6
S1132B50FB78002B03D0064B04225A6002E0044B9E
S1132B6004229A600C37BD465DF8047B704700BFB1
S1132B7080F00F4080B485B000AF7860124BFB60EA
S1132B80FB687A681A60114B104A526942F00802D5
S1132B905A610E4B0D4A126822F008021A600C4A60
S1132BA00B4BDB6823F0807323F4E06343F48073FE
S1132BB0D360084BFA689A62FB6818461437BD461E
S1132BC05DF8047B704700BFECE2FF1F40F00F404C
S1132BD000A0044030E3FF1F80B483B000AF7860EE
S1132BE0034B08225A600C37BD465DF8047B7047DE
S1132BF040F00F4080B485B000AF7860124BFB60AA
S1132C00FB687A681A60114B104A526942F010024C
S1132C105A610E4B0D4A126822F010021A600C4AD7
S1132C200B4B1B6923F0807323F4E06343F480733C
S1132C301361084BFA685A63FB6818461437BD469B
S1132C405DF8047B704700BFF0E2FF1FC0F00F4047
S1132C5000C0044030E3FF1F80B483B000AF78604D
S1132C60034B10225A600C37BD465DF8047B704755
S1132C70C0F00F4080B582B000AF786039603B6827
S1132C80002B00D10BE006E07B685A1C7A601A78AE
S1132C903B68104698477B681B78002BF4D10837B3
S1132CA0BD4680BD80B584B000AFF860B9607A607D
S1132CB0F8683249FDF710FC0346002B06D0F8688B
S1132CC02F49FDF709FC0346002B3CD17B685B6868
S1132CD02C481946FFF7CEFF7B685B682A481946E3
S1132CE0FFF7C8FF7B685B6826481946FFF7C2FFF9
S1132CF07B685B6825481946FFF7BCFF7B685B6807
S1132D0020481946FFF7B6FF7B685B681E481946E2
S1132D10FFF7B0FF7B685B681A481946FFF7AAFF04
S1132D207B685B681A481B491A4600F079FA7B688D
S1132D305B68194819491A4600F072FABB68012207
S1132D401A70002316E0F8681549FDF7C5FB034621
S1132D50002B06D0F8681349FDF7BEFB0346002B91
S1132D6007D1BB6801221A70786800F0AFF80346F7
S1132D7000E0002318461037BD4680BDA46900005A
S1132D80AC690000B8690000BC690000FC6900007F
S1132D90146A00001C6A0000386A0000486A0000D7
S1132DA06C6A0000746A000080B582B000AF78607D
S1132DB07B685B6806481946FFF75CFF7B685B68C5
S1132DC004481946FFF756FF0837BD4680BD00BFCB
S1132DD0B8690000806A000080B485B000AFB960B3
S1132DE07A603B600346FB733B6800221A70002341
S1132DF018461437BD465DF8047B704780B586B02D
S1132E0000AFF860B9607A603B603B68DB68984764
S1132E100346002B54D00023FB753B681B6807F165
S1132E20170210469847FB7D002B00D143E0FB7D41
S1132E30082B02D0FB7D7F2B0ED1BA68FB689A4227
S1132E4009D9BB68013BBB60BB6800221A707B6870
S1132E5001337B602EE02DE0F97DBA68FB68D31A5C
S1132E601A4607F116030846F968FFF7B5FF03464B
S1132E70002B0CD007E00023FB753B681B6807F1AF
S1132E80170210469847FB7D002BF4D1C3E7FA7D67
S1132E90BB681A70BB680133BB607B68013B7B6015
S1132EA0FB7D0D2B07D0FB7D0A2B04D07B68012B07
S1132EB000D800E0AFE7BB6800221A70012300E0ED
S1132EC0002318461837BD4680BD00BF80B582B0C8
S1132ED000AF78607B685B68114812491A4600F0BD
S1132EE0B1F97B685B68104810491A4600F0AAF9EA
S1132EF07B685B680E481946FFF7BCFE7B685B681D
S1132F000C481946FFF7B6FE7B685B68054819460E
S1132F10FFF7B0FE002318460837BD4680BD00BF4A
S1132F20146A0000B8690000886A0000906A000012
S1132F309C6A0000A06A000080B582B000AF78608F
S1132F4039603B689B6812481946FFF793FE3B685B
S1132F509B6878681946FFF78DFE3B689B680D48AF
S1132F601946FFF787FE3B689B680B481946FFF735
S1132F7081FE3B689B6809481946FFF77BFE3B6866
S1132F809B6807481946FFF775FE0837BD4680BDA4
S1132F90AC6A0000B8690000CC6A0000A4690000B3
S1132FA0D86A000080B586B000AFF860B9607A6076
S1132FB03B600023FB753B68002B01D11B2318E009
S1132FC07B68002B01D11B2313E00DE03B681B68D9
S1132FD0F868B9687A6898470346002B01D01B2328
S1132FE0FB753B6804333B603B681B68002BEDD1E9
S1132FF0FB7D18461837BD4680BD00BF80B586B03E
S113300000AFF860B9607A60FB700023FB750023A1
S1133010BB75BB68002B01D11B2335E0FB681B7813
S1133020002B01D100232FE0FB681B78232B14BF56
S113303000230123DBB2BB75BB7D002B02D0FB68F0
S11330400133FB6000237B7507F11503F86819460B
S1133050BA687B68FFF7A6FF0346FB757B7D002BF0
S113306002D0FB7D002B05D0F868B968FFF764FF38
S11330701B23FB75BB7D002B05D1FB78002B02D1F4
S1133080B868FFF791FEFB7D18461837BD4680BD32
S113309080B400AF034B1B681846BD465DF8047B43
S11330A0704700BF04E0FF1F80B586B000AFF86032
S11330B0B9607A603B600023FB757B68002B01D10B
S11330C01B235CE0F86803F092FA3861FA683B6904
S11330D01A44B9683B69CB1AF86811461A467B68EA
S11330E0FFF78CFE0346002B48D0F86803F07FFA04
S11330F038613B69002B01D11B2340E03B69012B64
S11331000AD1FB681B780A2B03D0FB681B780D2BB4
S113311002D1FB6800221A70BB685A1E3B699A42AE
S11331200CD897F82030F86879683A68FFF766FF9A
S1133130FB6800221A700423FB751FE03B69013B06
S1133140FA6813441B780A2B06D03B69013BFA68E2
S113315013441B780D2B11D13B69013BFA681344CE
S113316000221A7097F82030F86879683A68FFF7F7
S113317045FF0346FB75FB6800221A70FB7D184669
S11331801837BD4680BD00BF80B586B002AFF86079
S1133190B9607A603B6000230093F868B9687A6884
S11331A03B68FFF781FF034618461037BD4680BDD4
S11331B080B584B000AFF860B960FA71BB71FB6888
S11331C0002B11D009E0FB685A1CFA601A78BB691D
S11331D010469847BB79013BBB71FB681B78002BF9
S11331E002D0BB79002BEED105E0BB6920209847C3
S11331F0BB79013BBB71BB79002BF6D1FA79BB6972
S113320010469847BB6920209847BB68002B03D021
S1133210B868B969FFF72EFD1037BD4680BD00BF01
S113322080B586B002AFF860B9607A607B680093BD
S1133230F868B9683B221A23FFF7BAFF1037BD4676
S113324080BD00BF80B586B002AFF860B9607A6017
S11332507B680093F868B9683A220D23FFF7A8FF4A
S11332601037BD4680BD00BF80B584B000AF786024
S11332707868FEF749F90346FB73FB7B0A2B02D1FE
S11332807B6800221A701037BD4680BD80B582B0BD
S113329000AF0346FB71FB791846034900F01EF8A2
S11332A00837BD4680BD00BFE115000080B582B07F
S11332B000AFFEF703FA0346002B0CBF00230123E3
S11332C0DBB2FB71FB7918460837BD4680BD00BFF1
S11332D080B400AFBD465DF8047B704780B584B010
S11332E000AF03463960FB711423FB60FA793B6835
S11332F0104698470346FB72FB7A0B2B02D105203C
S113330002F092FCFB68002B00DC05E0FB68053B47
S1133310FB60FB7A0B2BE9D01037BD4680BD00BFA4
S113332080B400AFBD465DF8047B7047684620F06A
S113333007018D4689B500AFFDF70AFABD46BDE821
S113334089408546704700BF684620F007018D46D6
S113335081B400AFFFBEBD4681BC8546704700BF47
S1133360684620F007018D4681B400AFFFBEBD461C
S113337081BC8546704700BF684620F007018D4632
S113338081B400AFFFBEBD4681BC8546704700BF17
S1133390684620F007018D4681B400AFFFBEBD46EC
S11333A081BC8546704700BF684620F007018D4602
S11333B081B400AFFFBEBD4681BC8546704700BFE7
S11333C0684620F007018D4681B400AFFFBEBD46BC
S11333D081BC8546704700BF684620F007018D46D2
S11333E081B400AFFFBEBD4681BC8546704700BFB7
S11333F0684620F007018D4681B400AFFFBEBD468C
S113340081BC8546704700BF684620F007018D46A1
S113341081B400AFFFBEBD4681BC8546704700BF86
S1133420684620F007018D4681B400AFFFBEBD465B
S113343081BC8546704700BF684620F007018D4671
S113344081B400AFFFBEBD4681BC8546704700BF56
S1133450684620F007018D4681B400AFFFBEBD462B
S113346081BC8546704700BF684620F007018D4641
S113347081B400AFFFBEBD4681BC8546704700BF26
S1133480684620F007018D4681B400AFFFBEBD46FB
S113349081BC8546704700BF684620F007018D4611
S11334A081B400AFFFBEBD4681BC8546704700BFF6
S11334B0684620F007018D4681B400AFFFBEBD46CB
S11334C081BC8546704700BF684620F007018D46E1
S11334D081B400AFFFBEBD4681BC8546704700BFC6
S11334E0684620F007018D4681B400AFFFBEBD469B
S11334F081BC8546704700BF684620F007018D46B1
S113350081B400AFFFBEBD4681BC8546704700BF95
S1133510684620F007018D4681B400AFFFBEBD466A
S113352081BC8546704700BF684620F007018D4680
S113353081B400AFFFBEBD4681BC8546704700BF65
S1133540684620F007018D4681B400AFFFBEBD463A
S113355081BC8546704700BF684620F007018D4650
S113356081B400AFFFBEBD4681BC8546704700BF35
S1133570684620F007018D4681B400AFFFBEBD460A
S113358081BC8546704700BF684620F007018D4620
S113359081B400AFFFBEBD4681BC8546704700BF05
S11335A0684620F007018D4681B400AFFFBEBD46DA
S11335B081BC8546704700BF684620F007018D46F0
S11335C081B400AFFFBEBD4681BC8546704700BFD5
S11335D0684620F007018D4681B400AFFFBEBD46AA
S11335E081BC8546704700BF684620F007018D46C0
S11335F081B400AFFFBEBD4681BC8546704700BFA5
S1133600684620F007018D4681B400AFFFBEBD4679
S113361081BC8546704700BF684620F007018D468F
S113362081B400AFFFBEBD4681BC8546704700BF74
S1133630684620F007018D4681B400AFFFBEBD4649
S113364081BC8546704700BF684620F007018D465F
S113365081B400AFFFBEBD4681BC8546704700BF44
S1133660684620F007018D4681B400AFFFBEBD4619
S113367081BC8546704700BF684620F007018D462F
S113368081B400AFFFBEBD4681BC8546704700BF14
S1133690684620F007018D4681B400AFFFBEBD46E9
S11336A081BC8546704700BF684620F007018D46FF
S11336B081B400AFFFBEBD4681BC8546704700BFE4
S11336C0684620F007018D4681B400AFFFBEBD46B9
S11336D081BC8546704700BF684620F007018D46CF
S11336E081B400AFFFBEBD4681BC8546704700BFB4
S11336F0684620F007018D4681B400AFFFBEBD4689
S113370081BC8546704700BF684620F007018D469E
S113371081B400AFFFBEBD4681BC8546704700BF83
S1133720684620F007018D4681B400AFFFBEBD4658
S113373081BC8546704700BF684620F007018D466E
S113374081B400AFFFBEBD4681BC8546704700BF53
S1133750684620F007018D4681B400AFFFBEBD4628
S113376081BC8546704700BF684620F007018D463E
S113377081B400AFFFBEBD4681BC8546704700BF23
S1133780684620F007018D4681B400AFFFBEBD46F8
S113379081BC8546704700BF684620F007018D460E
S11337A081B400AFFFBEBD4681BC8546704700BFF3
S11337B0684620F007018D4681B400AFFFBEBD46C8
S11337C081BC8546704700BF684620F007018D46DE
S11337D081B400AFFFBEBD4681BC8546704700BFC3
S11337E0684620F007018D4681B400AFFFBEBD4698
S11337F081BC8546704700BF80B400AF4FF0E02322
S1133800584AC3F8082D584B4CF22052DA81564BD3
S11338104DF62812DA81544B4FF4E9721A80534B57
S113382003F582530433524A1A6050494F4B03F54F
S1133830815318331B6843F4F05201F58153183354
S11338401A604C4B9B78DBB203F00803002B07D0C3
S1133850484B484A9278D2B242F00802D2B29A70E7
S1133860424B03F582530433434A1A603F493F4BAA
S113387003F5805304331B6843F4803201F580530D
S113388004331A60394B394A126842F440221A60F0
S11338903A4A3A4B9B6C23F0807323F4E0639364BD
S11338A0364A364BDB6C23F0807323F4E063D36435
S11338B0334B24225A70334B80221A70304B304AD7
S11338C0127BD2B222F00102D2B21A732C4B9A228A
S11338D01A702B4B2A4AD278D2B202F01F02D2B20B
S11338E0DA70274B01221A71254B01225A7100BF4D
S11338F0234B9B79DBB203F00203002BF8D000BF0B
S11339001F4B9B79DBB203F01003002BF8D100BFEF
S11339101B4B9B79DBB203F00C03082BF8D1184B3B
S113392041225A7100BF164B9B79DBB203F00C03A2
S1133930082BF8D100BF124B9B79DBB203F0400394
S1133940002BF8D00E4B1A221A7000BF0C4B9B7937
S1133950DBB203F00C030C2BF8D1BD465DF8047BFD
S1133960704700BF000000000020054000700440C4
S11339700000030100D0074000000313009004403E
S1133980004006400050064080B500AF00F09AF8B1
S11339903F4A3F4B1B6923F0807323F4E06343F4F5
S11339A0E06313613B4B3B4A5279D2B222F01F02CF
S11339B0D2B25A71374B374A1279D2B222F0070287
S11339C0D2B21A71344B344A9278D2B222F009023C
S11339D0D2B29A70304B304A1278D2B2D2B222F0BC
S11339E07302D2B242F05002D2B2D2B21A702A4B4F
S11339F0294A5278D2B2D2B222F06302D2B242F051
S1133A004002D2B2D2B25A70244B00221A70244B14
S1133A10002283F8082300F019FB0020FEF7B6FE0D
S1133A2000F000FB0020FEF7FFFE0020FEF740FF41
S1133A300020FEF781FF0020FEF7C2FF002000F007
S1133A400BFB0020FFF700F80020FFF749F80020E7
S1133A5000F06AFB0020FFF78DF801F0ABF901F0EC
S1133A60AFF901F0B3F9FFF75BFCFDF733FEFFF7A5
S1133A702FFC0020FFF7BEF800F0DEFA00F0CEF8CD
S1133A8000F0CAFA00F07CFCFEF728F880BD00BF05
S1133A900090044000F0074000D0074000E00740D9
S1133AA000E100E080B483B000AF7860044B1B6891
S1133AB05A1C034B1A600C37BD465DF8047B7047F3
S1133AC0A0F6FF1F80B500AF72B601F0EBFA80BD1F
S1133AD080B500AF074B00221A60002000F08CFB79
S1133AE00246054B1A60044B1B68184600F0D0FBD5
S1133AF080BD00BFA0F6FF1F9CF6FF1F80B400AF7F
S1133B00034B1B681846BD465DF8047B704700BF35
S1133B10A0F6FF1F80B483B000AF78607B681A689A
S1133B201D4B1A607B685A681C4B1A607B689A6844
S1133B301B4B1A607B68DA681A4B1A607B681A6937
S1133B40194B1A607B685A69184B1A607B689A692A
S1133B50174B1A607B68DA69164B1A60164B1A68A1
S1133B60164B1A60164B1A68164B1A60164B1A68D5
S1133B70164B1A60164B1A68164B1A60164B1A68C5
S1133B80164B1A60164B1A68164B1A6000BE0C3797
S1133B90BD465DF8047B7047F8E2FF1FFCE2FF1F9F
S1133BA000E3FF1F04E3FF1F08E3FF1F0CE3FF1FF5
S1133BB010E3FF1F14E3FF1F28ED00E018E3FF1FCD
S1133BC02CED00E01CE3FF1F30ED00E020E3FF1FBD
S1133BD03CED00E024E3FF1F34ED00E028E3FF1F89
S1133BE038ED00E02CE3FF1F04207146084200F08A
S1133BF00480EFF3098000F002B8EFF308808169D4
S1133C000A88054B9A4200F00280FFF783BF023115
S1133C108161202101607047ABBE000080B400AF19
S1133C20BD465DF8047B704780B59CB000AF7860FA
S1133C307B685B68254826491A46FFF703FB07F1B2
S1133C400C03184600F080F8034687F86F3097F8A5
S1133C506F30002B0BD107F10C0207F11C03104647
S1133C601946532200F028F9034687F86F3097F875
S1133C706F30002B06D007F11C0318465321154A58
S1133C8000F0B4FE7B685B6807F11C021248114621
S1133C901A46FFF7D7FA7B685B680D481946FEF7AA
S1133CA0E9FF00F095F902467B685B680B48114612
S1133CB01A46FFF7C7FA7B685B6805481946FEF7A2
S1133CC0D9FF002318467037BD4680BD086C00003C
S1133CD0106C0000146C00001C6C0000246C0000CC
S1133CE080B582B000AF78607B685B680B480C4994
S1133CF01A46FFF795FA7B685B680A480A491A4630
S1133D00FFF78EFA7B685B68084809491A46FFF793
S1133D1087FA002318460837BD4680BD086C0000AA
S1133D20306C00004C6C0000546C0000706C00009F
S1133D30806C000080B400AF4FF0E023014AC3F868
S1133D400C2DFEE70400FA0580B483B000AF786060
S1133D50474B03F5825314331B681B0EDAB27B689E
S1133D601A70434B03F5825314331B681B0CDAB2ED
S1133D707B685A703E4B03F5825314331B681B0A4D
S1133D80DAB27B689A703A4B03F5825314331B689A
S1133D90DAB27B68DA70364B03F5825318331B684A
S1133DA01B0EDAB27B681A71314B03F58253183358
S1133DB01B681B0CDAB27B685A712D4B03F58253D6
S1133DC018331B681B0ADAB27B689A71284B03F517
S1133DD0825318331B68DAB27B68DA71244B03F51B
S1133DE082531C331B681B0EDAB27B681A72204B99
S1133DF003F582531C331B681B0CDAB27B685A72BE
S1133E001B4B03F582531C331B681B0ADAB27B6815
S1133E109A72174B03F582531C331B68DAB27B6822
S1133E20DA72134B03F583531B681B0EDAB27B68FB
S1133E301A730F4B03F583531B681B0CDAB27B68B0
S1133E405A730B4B03F583531B681B0ADAB27B6866
S1133E509A73074B03F583531B68DAB27B68DA73F2
S1133E60002318460C37BD465DF8047B704700BF3D
S1133E700070044080B485B000AF786039600023DE
S1133E80FB600EE07A68FB6813441A783968FB68B3
S1133E900B441B789A4201D0002306E0FB680133EF
S1133EA0FB60FB680F2BEDD9012318461437BD4680
S1133EB05DF8047B704700BF80B586B000AFF86042
S1133EC0B9607A60B8687968154A00F08FFD0023FC
S1133ED07B6118E0B8687968124A00F0ABFDFA68B3
S1133EE07B6913441B78B86879681A4600F0D4FDDE
S1133EF07B690E2B04D8B86879680B4A00F09AFDE8
S1133F007B6901337B617B690F2BE3D9B8687968DE
S1133F10064A00F08FFD002318461837BD4680BDC1
S1133F20A46C0000A86C0000AC6C0000B06C000035
S1133F3080B586B000AFF860B9607A600023FB7585
S1133F40F8681E49FCF7C8FA0346002B06D0F86847
S1133F501B49FCF7C1FA0346002B07D1BB680122B9
S1133F601A707868FFF7BCFE034623E0F868154929
S1133F70FCF7B2FA0346002B06D0F8681249FCF7A6
S1133F80ABFA0346002B08D1BB6801221A7078688B
S1133F90FFF74AFE0346FB750BE0F8680B49FCF794
S1133FA09BFA0346002B04D1BB6801221A70FFF769
S1133FB0C1FEFB7D18461837BD4680BDB46C0000B9
S1133FC0BC6C0000C86C0000D06C0000DC6C00000D
S1133FD080B483B000AF0D4B03F5815304331B68E9
S1133FE01B0903F003037B607B68002B07DB7B6802
S1133FF0082B04DC064B7A6853F8223000E0054BAA
S113400018460C37BD465DF8047B704700700440C9
S113401008E0FF1FE86C000080B400AFBD465DF807
S1134020047B704780B500AF024B1B681846FEF74F
S1134030EDFB80BD30E3FF1F80B500AF024B5B6B2F
S11340401846FEF709FE80BD30E3FF1F80B400AFC1
S1134050BD465DF8047B704780B584B000AF7860DE
S1134060104BFB60FB687A689A60FB6801221A7146
S1134070FB680122DA800C4BFA689A61002000F098
S1134080E3FB0246FB681A60FB681B68002B04D143
S1134090054B00229A61002300E0FB6818461037A4
S11340A0BD4680BD70E3FF1F30E3FF1F80B584B0C1
S11340B000AF78600B467B807B68FB60FB687A8886
S11340C0DA80786800F006F8002318461037BD46F9
S11340D080BD00BF80B586B000AF78607B683B616F
S11340E03B691A6807F10E031046194600F03CFCC0
S11340F0FB89002B03D13B69DB88FB8208E0FB8949
S11341003A69D28802FB03F303F500431B0CFB82DC
S11341103B691A68FB8A104600211A4600F03CFCF1
S11341201837BD4680BD00BF80B584B000AF78604D
S1134130104BFB60FB687A689A60FB6801221A7175
S1134140FB680122DA800C4BFA685A62002000F006
S11341507BFB0246FB681A60FB681B68002B04D1DA
S1134160054B00225A62002300E0FB681846103712
S1134170BD4680BD7CE3FF1F30E3FF1F80B584B0E4
S113418000AF78600B467B807B68FB60FB687A88B5
S1134190DA80786800F006F8002318461037BD4628
S11341A080BD00BF80B586B000AF78607B683B619E
S11341B03B691A6807F10E031046194600F0D4FB58
S11341C0FB89002B03D13B69DB88FB8208E0FB8978
S11341D03A69D28802FB03F303F500431B0CFB820C
S11341E03B691A68FB8A104601211A4600F0D4FB89
S11341F01837BD4680BD00BF80B485B000AF78607D
S11342001D4BFB60FB687A681A601C4BFA681A60E5
S11342101B491B4B03F581531C331B6843F40002F9
S113422001F581531C331A60164B00221A60154B9A
S11342300022C3F80821134B0122C3F80C21114BAF
S113424040F6C312C3F800210F4B802283F81E23CB
S11342500D4B0D4A126842F080421A60094B03224A
S1134260C3F80821094BFA68DA62FB681846143768
S1134270BD465DF8047B704788E3FF1F8CE3FF1F96
S1134280007004400070034000E100E030E3FF1FD1
S113429080B483B000AF7860074B074AD2F8082196
S11342A042F00102C3F80821002318460C37BD462A
S11342B05DF8047B704700BF00700340684620F03F
S11342C007018D4681B583B000AF0A4B1B687B6044
S11342D0094B0122C3F80C21074BD3F800317B684A
S11342E01B681846FFF7DEFB0C37BD46BDE881406E
S11342F0854670478CE3FF1F0070034080B500AF14
S113430000F07EFA0346002B0CBF00230123DBB22E
S1134310184680BD80B584B000AF786000F056FACE
S1134320F860FB68B3F1FF3F03D17B6800221A7089
S113433003E0FB68DAB27B681A701037BD4680BDB3
S113434080B584B000AF0346FB710523FB60FB1D01
S113435000201946012200F015FA0346012B00D172
S11343600AE0012001F060FCFB68002B00DC03E0A4
S1134370FB68013BFB60EAE71037BD4680BD00BF28
S113438080B500AF00F05AFA80BD00BF80B483B09E
S113439000AF214B7B607B6801221A617B6801229C
S11343A05A617B681D4A9A617B681D4ADA617B68A1
S11343B04FF400721A627B6800229A627B680022C2
S11343C05A627B680022DA627B68144A1A637B684B
S11343D0144A5A637B6840229A637B6800221A64F9
S11343E07B680022DA637B6800225A647B680733A7
S11343F00D4A106818607B680C4A10681860918830
S1134400927999809A717B6820229A710C37BD4603
S11344105DF8047B704700BFD4F6FF1F046D0000F5
S113442090E3FF1F90E5FF1F106D0000146D000066
S113443080B588B000AFF860B9607A600023BB61D2
S1134440FB68DB687B61FB681B693B613A697B69DC
S11344509A4205D93A697B69D31A013BFB6107E0AB
S1134460FB689A6839697B69CB1A1344013BFB6189
S1134470FB689A687B69D31AFA699A4238BF134673
S1134480FB61FA697B689A4238BF1346FB61FB689B
S11344905A687B6913441846B968FA6902F096F8B9
S11344A0BA69FB691344BB61BA68FB691344BB6016
S11344B07A68FB69D31A7B607A69FB6913447B6170
S11344C0FB689A687B699A4201D100237B61FB688F
S11344D07A69DA607B68002BB5D1BB69184620374E
S11344E0BD4680BD80B588B000AFF860B9607A6021
S11344F0FB68DB68FB61FB689A68FB69D31ABB61E4
S1134500BA697B689A420ED9FB685A68FB691344FE
S11345101846B9687A6802F059F8FA697B681A444F
S1134520FB68DA601BE0BB697B61FB685A68FB6966
S113453013441846B9687A6902F048F87A68BB6986
S1134540D31A7B61FB685A68B968BB690B4410468F
S113455019467A6902F03AF8FB687A69DA6020371A
S1134560BD4680BD80B487B000AF78607B681B69AE
S11345703B617B68DB68FB603A69FB689A4208D858
S11345807B689A68FB68D21A3B691344013B7B61E0
S113459004E03A69FB68D31A013B7B617B691846E6
S11345A01C37BD465DF8047B704700BF80B58AB0F8
S11345B000AFF860B9607A603C4B1B78002B01D1E6
S11345C0FFF7E4FEFA6813465B001344DB0003F1D3
S11345D03002364B1344BB61BB68FB61BB691B698A
S11345E03B62BB69DB687B6100237B623A6A7B695F
S11345F09A422AD9BB699A683B6AD31A3B613A69E1
S11346007B689A4238BF13463B61BB695A683B6A70
S11346101344F86919463A6901F0D8FF7A6A3B698C
S113462013447B62FA693B691344FB617A683B6912
S1134630D31A7B603A6A3B6913443B62BB699A684C
S11346403B6A9A4201D100233B627A693B6AD31ADE
S11346503B613A697B689A4238BF13463B613B69C8
S1134660002B18D0BB695A683B6A1344F869194691
S11346703A6901F0ABFF7A6A3B6913447B62FA69D9
S11346803B691344FB617A683B69D31A7B603A6ADD
S11346903B6913443B627B6A002B02D0BB693A6AD4
S11346A01A617B6A18462837BD4680BDD4F6FF1FC1
S11346B080B586B000AFF860B9607A60EFF311831B
S11346C04FF0300181F311887B61F868B9687A682A
S11346D0FFF76CFF38617B6983F311883B691846E7
S11346E01837BD4680BD00BF80B588B000AFF86004
S11346F0B9607A60BB68BB61FB685A1C13465B00F7
S11347001344DB001E4A13447B617B695B69012B04
S113471017D0012B02D3022B23D029E07869FFF7AD
S113472021FF38613A697B689A4202D20023FB6117
S113473021E07B68FB617869B9697A68FFF7D2FE8A
S113474019E07869FFF70EFF38617A683B699A428D
S113475038BF1346FB617869B969FA69FFF7C2FE8D
S113476009E07869B9697A68FFF762FEF86102E0E6
S11347700023FB6100BFFB6918462037BD4680BD9E
S1134780D4F6FF1F80B586B000AFF860B9607A60D8
S11347900D4B1B78002B01D1FFF7F8FDEFF31183CC
S11347A04FF0300181F311887B61F868B9687A6849
S11347B0FFF79AFF38617B6983F311883B691846D8
S11347C01837BD4680BD00BFD4F6FF1F80B582B048
S11347D000AFFB1C002019460122FFF769FF0346C6
S11347E07B607B68012B03D1FB78DBB27B6002E04A
S11347F04FF0FF337B607B6818460837BD4680BDA9
S113480080B582B000AF0C4B1B78002B01D1FFF7B1
S1134810BDFD094B1B6C3B60074BDA6B3B689A424E
S113482002D001237B6001E000237B607B68184693
S11348300837BD4680BD00BFD4F6FF1F80B500AF6A
S1134840FFF7A4FD80BD00BF80B485B000AF7860E1
S1134850404B5B69002B69D13F4BFB60FB687A6876
S11348605A60FB6801221A703C493C4B03F58153A2
S11348701C331B6843F0807201F581531C331A60AA
S1134880374B04225A65364B00221A60344B0022FF
S1134890DA64334B00225A60314B0022DA60304B29
S11348A000225A612E4B0022DA612D4B00225A62FB
S11348B02B4B0022DA622A4B00225A63284B002237
S11348C0DA63274B00225A64254B46F2A7129A60FA
S11348D0234B2822DA60224B00221A61204B282223
S11348E0DA611F4B00221A621D4B0522DA651C4B4C
S11348F006225A651B4A1B4B5B6823F0807323F422
S1134900E06343F480635360164A164BDB6823F07C
S1134910807323F4E06343F48063D360104B082274
S11349201A600C4BFA685A61FB680CE0094B5B692E
S1134930FB60FB687A685A60FB681B780133DAB263
S1134940FB681A70FB6818461437BD465DF8047B93
S1134950704700BF30E3FF1FD0E5FF1F0070044025
S11349600080034000B0044080B485B000AF78609C
S11349703960084B9B68FB81FB890133FB813B68F1
S1134980FA891A80002318461437BD465DF8047B63
S1134990704700BF0080034080B483B000AF7860EC
S11349A013460A46FA703B80FB78012B01D9822317
S11349B010E0FB780A4AD35C002B01D0092309E0FC
S11349C00849FB78084AD35C3A880133DB000B447E
S11349D09A60002318460C37BD465DF8047B704787
S11349E0106E0000008003400C6E000080B485B09F
S11349F000AFF860B9607A60BB68013BBB600AE055
S1134A00FB685A1CFA607A68511C796012781A7033
S1134A10BB68013BBB60BB68002B03D07B681B7881
S1134A20002BEDD1FB6800221A701437BD465DF8E7
S1134A30047B704780B485B000AFF860B9607A60D9
S1134A40BB68013BBB6005E0FB680133FB60BB68EE
S1134A50013BBB60BB68002B03D0FB681B78002BB9
S1134A60F2D10AE0FB685A1CFA607A68511C79603A
S1134A7012781A70BB68013BBB60BB68002B03D083
S1134A807B681B78002BEDD1FB6800221A70143769
S1134A90BD465DF8047B704780B586B000AFF86012
S1134AA0B9601346FB710023BB75FB7903F00F0358
S1134AB0FB75FB7D092B01D8302300E03723FA7DF9
S1134AC01344DBB27B75FB791B09FB75FB7D092B5A
S1134AD001D8302300E03723FA7D1344DBB23B7561
S1134AE007F11403F868B9681A46FFF7A3FF1837EB
S1134AF0BD4680BD80B588B000AFF860B9607A600B
S1134B0007F1140318460C217A6800F00BF807F13A
S1134B101403F868B9681A46FFF78CFF2037BD46BE
S1134B2080BD00BF80B588B000AFF860B9607A601E
S1134B30FB68BB610023FB777B68DB0FDBB2FB7593
S1134B407B68B3F1004F05D1F868B9683E4AFFF7B6
S1134B504DFF76E0BB68013BBB60FB7D002B02D0C0
S1134B607B685B427B607B68002B0DD1BB68002BAC
S1134B700AD0FB7F5A1CFA77BA69134430221A70A0
S1134B80BB68013BBB6020E01FE0FB7F5A1CFA7747
S1134B90BA69D01879682D4B83FB01239A10CB177F
S1134BA0D21A13469B0013445B00CA1AD3B23033A3
S1134BB0DBB20370BB68013BBB607B68234A82FBAA
S1134BC003129210DB17D31A7B607B68002B02DD83
S1134BD0BB68002BD9D1FB7D002B09D0BB68002B0F
S1134BE006D0FB7F5A1CFA77BA6913442D221A7037
S1134BF00023BB771AE0BB7FBA6913441B78BB75EB
S1134C00BB7FBA691344F97FBA7F8A1A013AB9693A
S1134C100A4412781A70FA7FBB7FD31A013BBA692F
S1134C201344BA7D1A70BB7F0133BB77FB7F5B08EB
S1134C30DBB2BA7F9A42DED3FB7FBA691344002207
S1134C401A702037BD4680BD246D00006766666615
S1134C5080B485B000AF7860396000237B723B6814
S1134C6000221A6004E07B681B685A1C7B681A6087
S1134C707B681B681B78202BF5D07B681B681B782E
S1134C80FB72FB7A2D2B0AD101237B727B681B6894
S1134C905A1C7B681A607B681B681B78FB72FB7A62
S1134CA0302B39D17B681B685A1C7B681A607B687F
S1134CB01B681B78FB72FB7A622B0DD0782B17D103
S1134CC01023BB727B681B685A1C7B681A607B6864
S1134CD01B681B78FB721EE00223BB727B681B6897
S1134CE05A1C7B681A607B681B681B78FB7212E095
S1134CF0FB7A202B02D9FB7A2E2B01D1002352E020
S1134D00FB7A2F2B02D9FB7A392B01D91B234AE0DA
S1134D100823BB7200BF09E0FB7A2F2B02D9FB7A70
S1134D20392B01D91B233EE00A23BB720023FB600D
S1134D3029E0FB7A602B02D9FB7A203BFB72FB7AD9
S1134D40303BFB72FB7A102B07D9FB7A073BFB72D3
S1134D50FB7A092B01D81B2325E0FA7ABB7A9A4205
S1134D6001D31B231FE0BB7AFA6802FB03F2FB7A30
S1134D701344FB607B681B685A1C7B681A607B6861
S1134D801B681B78FB72FB7A202B02D9FB7A2E2B33
S1134D90CFD17B7A002B02D0FB685B42FB60FA68C0
S1134DA03B681A60002318461437BD465DF8047B3F
S1134DB0704700BF80B400AFBD465DF8047B704708
S1134DC080B400AFBD465DF8047B704780B400AF8B
S1134DD0BD465DF8047B704780B584B000AF786051
S1134DE00023FB607B6803F00703002B04D07B687F
S1134DF023F0070308337B6000F078FF184B1B682F
S1134E00002B05D1174B23F007031A46144B1A60E5
S1134E10154B1A687B681A4440F697739A4213D864
S1134E20114B1A687B681A440F4B1B689A420BD9C2
S1134E300B4B1A680C4B1B681344FB600A4B1A6833
S1134E407B681A44084B1A6000F05EFFFB68002B75
S1134E5001D1FBF799FCFB6818461037BD4680BDAD
S1134E607CF5FF1FE0E5FF1F78F5FF1F80B483B0DA
S1134E7000AF78607B68002B04D04FF0500080F3C3
S1134E801188FEE70C37BD465DF8047B704700BF10
S1134E9080B483B000AF78607B6803F108027B685C
S1134EA05A607B684FF0FF329A607B6803F1080216
S1134EB07B68DA607B6803F108027B681A617B68AF
S1134EC000221A600C37BD465DF8047B704700BFB2
S1134ED080B483B000AF78607B6800221A610C371D
S1134EE0BD465DF8047B704780B485B000AF786040
S1134EF039607B685B68FB603B68FA685A60FB68F2
S1134F009A683B689A60FB689B683A685A60FB68D9
S1134F103A689A603B687A681A617B681B685A1C15
S1134F207B681A601437BD465DF8047B704700BF88
S1134F3080B485B000AF786039603B681B68BB60A3
S1134F40BB68B3F1FF3F03D17B681B69FB600CE0D6
S1134F507B680833FB6002E0FB685B68FB60FB680E
S1134F605B681A68BB689A42F6D9FB685A683B6862
S1134F705A603B685B683A689A603B68FA689A6072
S1134F80FB683A685A603B687A681A617B681B68F8
S1134F905A1C7B681A601437BD465DF8047B704761
S1134FA080B485B000AF78607B681B69FB607B6868
S1134FB05B687A6892689A607B689B687A685268D2
S1134FC05A60FB685A687B689A4203D17B689A6886
S1134FD0FB685A607B6800221A61FB681B685A1ED2
S1134FE0FB681A60FB681B6818461437BD465DF8F9
S1134FF0047B704780B485B000AFF860B9607A6014
S1135000FB68043BFB60FB684FF080721A60FB682E
S1135010043BFB60BA68FB681A60FB68043BFB60F6
S1135020FB6800221A60FB68143BFB607A68FB682B
S11350301A60FB68203BFB60FB6818461437BD46CA
S11350405DF8047B704700BF80B400AF0B4B0B4A84
S1135050126842F070421A60094B06221A60094B2A
S11350604CF24F321A60084B00221A60044B07229C
S11350701A60BD465DF8047B704700BF20ED00E078
S113508010E000E014E000E018E000E080B400AFBD
S1135090034B07221A60BD465DF8047B704700BFCE
S11350A010E000E080B400AF034B06221A60BD4656
S11350B05DF8047B704700BF10E000E080B584B069
S11350C000AF254BFB60FB681B78DBB2BB60FB6861
S11350D0FF221A70FB681B78DBB2FB71FB79DBB231
S11350E003F05003DAB21D4B1A701D4B07221A60ED
S11350F009E01B4B1B685A1E194B1A60FB79DBB283
S11351005B00DBB2FB71FB79DBB2DBB25BB2002B81
S1135110EFDB134B1B681A02114B1A60104B1B6810
S113512003F4E0620E4B1A60BB68DAB2FB681A70D3
S11351300C4B0C4A126842F470021A600A4B0022AB
S11351401A60FFF781FFFFF7A1FF00F06DF800235D
S113515018461037BD4680BD00E400E080F5FF1F0F
S113516084F5FF1F20ED00E028E0FF1F80B400AFAE
S11351704FF0500080F311880D4B1B685A1C0C4BE8
S11351801A600B4B1B68012B09D10A4B1B68DBB25D
S1135190002B04D04FF0500080F31188FEE7BFF3DA
S11351A04F8FBFF36F8FBD465DF8047B704700BF20
S11351B028E0FF1F04ED00E080B400AF084B1B683B
S11351C05A1E074B1A60064B1B68002B03D14FF085
S11351D0000080F31188BD465DF8047B704700BF72
S11351E028E0FF1F80B400AF054B4FF080521A60D7
S11351F0BFF34F8FBFF36F8FBD465DF8047B7047DD
S113520004ED00E080B500AF4FF0500080F311884A
S113521000F008FE0346002B01D0FFF7E3FF4FF038
S1135220000080F3118880BD80B400AF084B1B7868
S1135230002B00D1FEE707480068006880F3088867
S113524062B600DF00BFBD465DF8047B704700BF57
S11352505C6D000008ED00E0064B19680868B0E8D2
S1135260F00F80F309884FF0000080F311884EF0AE
S11352700D0E704788F5FF1FEFF309800C4B1A6879
S113528020E9F00F10602DE908404FF0500080F342
S1135290118800F081FE4FF0000080F31188BDE812
S11352A0084019680868B0E8F00F80F3098870476F
S11352B088F5FF1F80B584B000AF786039607B68E3
S11352C0FB60FB68002B04D14FF0500080F3118881
S11352D0FEE7FFF74BFFFB681A68FB68DB6BF968B6
S11352E0096C01FB03F31A44FB689A60FB68002213
S11352F09A63FB681A68FB685A60FB681A68FB6863
S1135300DB6B013BF968096C01FB03F31A44FB688E
S1135310DA60FB68FF2283F84420FB68FF2283F8ED
S113532045203B68002B0ED1FB681B69002B14D071
S1135330FB681033184600F0CDFE0346002B0CD05A
S1135340FFF750FF09E0FB6810331846FFF7A0FD94
S1135350FB6824331846FFF79BFDFFF72DFF01235D
S113536018461037BD4680BD80B58AB002AFF860DC
S1135370B9601346FB71FB68002B04D14FF0500059
S113538080F31188FEE7BB68002B02D10023FB6188
S113539004E0FB68BA6802FB03F3FB61FB6950336A
S11353A01846FFF719FDB861BB69002B0CD0BB6927
S11353B07B617B6950337B61FB79BA690092F86841
S11353C0B9687A6900F006F8BB6918462037BD460B
S11353D080BD00BF80B584B000AFF860B9607A606A
S11353E0FB70BB68002B03D1BB69BA691A6002E089
S11353F0BB697A681A60BB69FA68DA63BB69BA6820
S11354001A64B8690121FFF755FFBB69FA7883F87C
S11354104C201037BD4680BD80B58AB000AFF8601F
S1135420B9607A603B6000237B62FB683B623B6A45
S1135430002B04D14FF0500080F31188FEE7BB68C5
S1135440002B03D13B6A1B6C002B01D1012300E02C
S11354500023002B04D14FF0500080F31188FEE7A5
S11354603B68022B03D13B6ADB6B012B01D1012387
S113547000E00023002B04D14FF0500080F311888A
S1135480FEE700F06DFF0346002B02D17B68002B82
S113549001D1012300E00023002B04D14FF0500080
S11354A080F31188FEE7FFF761FE3B6A9A6B3B6A63
S11354B0DB6B9A4202D33B68022B1DD1386AB96870
S11354C03A6800F043F9F8613B6A5B6A002B0AD042
S11354D03B6A2433184600F0FDFD0346002B07D039
S11354E0FFF780FE04E0FB69002B01D0FFF77AFE92
S11354F0FFF762FE012361E07B68002B03D1FFF715
S11355005BFE00235AE07B6A002B06D107F11403EB
S1135510184600F03BFE01237B62FFF74DFE00F0CE
S1135520E5FBFFF723FE3B6A93F84430DBB25BB242
S1135530B3F1FF3F03D13B6A002283F844203B6A66
S113554093F84530DBB25BB2B3F1FF3F03D13B6A62
S1135550002283F84520FFF72FFE07F114023B1DBC
S11355601046194600F028FE0346002B1ED1386A67
S113557000F0E4F90346002B12D03B6A03F1100259
S11355807B681046194600F087FD386A00F070F910
S113559000F0BAFB0346002B0FD1FFF723FE0CE00B
S11355A0386A00F065F900F0AFFB7CE7386A00F078
S11355B05FF900F0A9FB002300E074E718462837E0
S11355C0BD4680BD80B58AB000AFF860B9607A602E
S11355D000237B62FB683B623B6A002B04D14FF0E3
S11355E0500080F31188FEE7BB68002B03D13B6AAF
S11355F01B6C002B01D1012300E00023002B04D1FC
S11356004FF0500080F31188FEE700F0A9FE034636
S1135610002B02D17B68002B01D1012300E0002381
S1135620002B04D14FF0500080F31188FEE7FFF700
S11356309DFD3B6A9B6BFB61FB69002B19D0386AAB
S1135640B96800F0EFF8FB695A1E3B6A9A633B6A3B
S11356501B69002B09D03B6A1033184600F03AFD51
S11356600346002B01D0FFF7BDFDFFF7A5FD012385
S113567067E07B68002B03D1FFF79EFD002360E009
S11356807B6A002B06D107F11403184600F07EFD57
S113569001237B62FFF790FD00F028FBFFF766FD16
S11356A03B6A93F84430DBB25BB2B3F1FF3F03D102
S11356B03B6A002283F844203B6A93F84530DBB20E
S11356C05BB2B3F1FF3F03D13B6A002283F845206C
S11356D0FFF772FD07F114023B1D1046194600F056
S11356E06BFD0346002B1ED1386A00F011F9034606
S11356F0002B12D03B6A03F124027B681046194642
S113570000F0CAFC386A00F0B3F800F0FDFA034672
S1135710002B15D1FFF766FD12E0386A00F0A8F8F7
S113572000F0F2FA83E7386A00F0A2F800F0ECFA2D
S1135730386A00F0EDF80346002B01D0002300E0A6
S113574075E718462837BD4680BD00BF80B586B0D2
S113575000AFF860B9607A6000237B61FB689B6BE3
S11357603B61FB681B6C002B0DD1FB681B68002B95
S11357704FD1FB689B68184600F010FE7861FB6807
S113578000229A6045E07B68002B1AD1FB685A68B6
S1135790FB681B6C1046B9681A4600F017FFFB68DB
S11357A05A68FB681B6C1A44FB685A60FB685A68A9
S11357B0FB689B689A422CD3FB681A68FB685A60A2
S11357C027E0FB68DA68FB681B6C1046B9681A4668
S11357D000F0FCFEFB68DA68FB681B6C5B421A4451
S11357E0FB68DA60FB68DA68FB681B689A4207D2D8
S11357F0FB689A68FB681B6C5B421A44FB68DA60BE
S11358007B68022B05D13B69002B02D03B69013B2D
S11358103B613B695A1CFB689A637B6918461837DD
S1135820BD4680BD80B582B000AF786039607B68CA
S11358301B6C002B19D07B68DA687B681B6C1A44DC
S11358407B68DA607B68DA687B689B689A4203D37A
S11358507B681A687B68DA607B68DA687B681B6C33
S1135860386811461A4600F0B1FE0837BD4680BDBF
S113587080B584B000AF7860FFF778FC7B6893F85C
S11358804530FB7312E07B685B6A002B0AD07B68AF
S11358902433184600F01EFC0346002B03D000F00E
S11358A0E1FC00E006E0FB7B013BFB7397F90F3062
S11358B0002BE8DC7B68FF2283F84520FFF77CFCA3
S11358C0FFF754FC7B6893F84430BB7312E07B68A9
S11358D01B69002B0DD07B681033184600F0FAFBCF
S11358E00346002B01D000F0BDFCBB7B013BBB7326
S11358F000E003E097F90E30002BE8DC7B68FF2220
S113590083F84420FFF758FC1037BD4680BD00BF24
S113591080B584B000AF7860FFF728FC7B689B6B90
S1135920002B02D10123FB6001E00023FB60FFF7A1
S113593043FCFB6818461037BD4680BD80B584B073
S113594000AF7860FFF712FC7B689A6B7B68DB6BB7
S11359509A4202D10123FB6001E00023FB60FFF7C0
S11359602BFCFB6818461037BD4680BD80B485B05B
S113597000AF786039600023FB6014E00E4BFA68D6
S113598053F83230002B0BD10B4BFA68396843F8CB
S11359903210094AFB68DB0013447A685A6005E058
S11359A0FB680133FB60FB68042BE7D91437BD4661
S11359B05DF8047B704700BF1CF7FF1F80B58CB0F7
S11359C004AFF860B9603B601346FB80FB889B0022
S11359D01846FFF701FA78617B69002B0ED060202E
S11359E0FFF7FAF9F861FB69002B03D0FB697A69C8
S11359F01A6305E07869FFF739FA01E00023FB61D7
S1135A00FB69002B14D0FB88BA6A0092FA6A0192EF
S1135A10FA69029200220392F868B9681A463B6850
S1135A2000F00EF8F86900F099F80123BB6102E078
S1135A304FF0FF33BB61BB6918462037BD4680BDBC
S1135A4080B586B000AFF860B9607A603B60BB6A2D
S1135A501A6B7B689B001046A5211A4600F0BFFD17
S1135A60BB6A1A6B7B6803F18043013B9B001344C0
S1135A703B613B6923F007033B613B6903F0070388
S1135A80002B04D04FF0500080F31188FEE7BB6A6E
S1135A903A691A64BB68002B1DD000237B6112E0B5
S1135AA0BA687B6913441A78B96A7B690B4430334A
S1135AB01A71BA687B6913441B78002B00D105E086
S1135AC07B6901337B617B690B2BE9D9BB6A0022BB
S1135AD083F83F2003E0BB6A002283F834203B6A4A
S1135AE0052B01D905233B62BB6A3A6ADA62BB6AB9
S1135AF03A6ADA64BB6A00221A65BB6A0433184640
S1135B00FFF7E6F9BB6A18331846FFF7E1F9BB6AF9
S1135B10BA6A1A613B6AC3F10602BB6A9A61BB6A3C
S1135B20BA6A5A62BB6A00225A65BB6A00229A6545
S1135B30BB6A002283F85C203869F9683A68FFF789
S1135B4059FA0246BB6A1A607B6A002B02D07B6A50
S1135B50BA6A1A601837BD4680BD00BF80B582B0EE
S1135B6000AF7860FFF702FB294B1B685A1C284BD7
S1135B701A60284B1B68002B09D1264B7A681A60DF
S1135B80234B1B68012B10D100F08AFB0DE0224B44
S1135B901B68002B09D11F4B1B68DA6A7B68DB6A20
S1135BA09A4202D81B4B7A681A601C4B1B685A1C19
S1135BB01A4B1A60194B1A687B685A647B68DB6A53
S1135BC001229A40164B1B681A43154B1A607B68D6
S1135BD0DA6A13469B0013449B00124A1A447B68FA
S1135BE0043310461946FFF77FF9FFF7E5FA0A4B2D
S1135BF01B68002B08D0074B1B68DA6A7B68DB6ADA
S1135C009A4201D2FFF7EEFA0837BD4680BD00BFC5
S1135C105CF6FF1F88F5FF1F68F6FF1F78F6FF1F6D
S1135C2064F6FF1F8CF5FF1F80B584B000AF786069
S1135C300023FB607B68002B11D00D4B1B68002BED
S1135C4004D04FF0500080F31188FEE700F04EF8C6
S1135C507868002100F01CFC00F056F8F860FB683E
S1135C60002B01D1FFF7BEFA1037BD4680BD00BF3F
S1135C7084F6FF1F80B584B002AF00230093154B58
S1135C8001931548154964220023FFF797FE7860B5
S1135C907B68012B12D14FF0500080F31188104B18
S1135CA04FF0FF321A600F4B01221A600E4B002294
S1135CB01A60FDF70DFFFFF701FA08E07B68B3F106
S1135CC0FF3F04D14FF0500080F31188FEE70837FE
S1135CD0BD4680BD80F6FF1F7D620000386D000068
S1135CE07CF6FF1F68F6FF1F60F6FF1F80B400AF4D
S1135CF0044B1B685A1C034B1A60BD465DF8047BB9
S1135D00704700BF84F6FF1F80B584B000AF002346
S1135D10FB600023BB603B4B1B68002B04D14FF09E
S1135D20500080F31188FEE7FFF720FA354B1B681B
S1135D305A1E344B1A60334B1B68002B5BD1324B19
S1135D401B68002B57D02EE0304BDB68DB68FB6010
S1135D50FB6818331846FFF723F9FB680433184629
S1135D60FFF71EF9FB68DB6A01229A40284B1B6887
S1135D701A43274B1A60FB68DA6A13469B001344E4
S1135D809B00244A1A44FB68043310461946FFF763
S1135D90ABF8FB68DA6A204B1B68DB6A9A4202D3D1
S1135DA01E4B01221A60194B1B68002BCCD1FB68D7
S1135DB0002B01D000F0B4FA194B1B687B607B68A0
S1135DC0002B10D000F02EF80346002B02D0134B0A
S1135DD001221A607B68013B7B607B68002BF1D158
S1135DE00F4B00221A600D4B1B68002B03D00123BC
S1135DF0BB60FFF7F7F9FFF7DFF9BB681846103708
S1135E00BD4680BD84F6FF1F5CF6FF1F34F6FF1FFE
S1135E1064F6FF1F8CF5FF1F88F5FF1F70F6FF1F48
S1135E206CF6FF1F80B586B000AF00237B614F4B3B
S1135E301B68002B40F088804D4B1B6801333B618D
S1135E404B4B3A691A603B69002B1AD1494B1B68CA
S1135E501B68002B04D04FF0500080F31188FEE73C
S1135E60444B1B68FB60444B1A68424B1A60424B1C
S1135E70FA681A60414B1B685A1C404B1A6000F0C8
S1135E804FFA3F4B1B683A699A4248D3394B1B6817
S1135E901B68002B04D13A4B4FF0FF321A603EE0EE
S1135EA0344B1B68DB68DB68BB60BB685B687B608A
S1135EB03A697B689A4203D2314B7A681A602EE0C1
S1135EC0BB6804331846FFF76BF8BB689B6A002B6A
S1135ED004D0BB6818331846FFF762F8BB68DB6A66
S1135EE001229A40274B1B681A43264B1A60BB6851
S1135EF0DA6A13469B0013449B00234A1A44BB6886
S1135F00043310461946FEF7EFFFBB68DA6A1F4BED
S1135F101B68DB6A9A4201D301237B61B6E71B4B02
S1135F201B68DA6A184913469B0013449B000B4410
S1135F301B68012B01D901237B61154B1B68002BC6
S1135F4001D1FAF715FC06E0114B1B685A1C104BE3
S1135F501A60FAF70DFC0F4B1B68002B01D00123CC
S1135F607B617B6918461837BD4680BD84F6FF1FE8
S1135F7060F6FF1F2CF6FF1F30F6FF1F74F6FF1F9D
S1135F807CF6FF1F64F6FF1F8CF5FF1F88F5FF1FCB
S1135F906CF6FF1F70F6FF1F80B584B000AF374B5F
S1135FA01B68002B03D0364B01221A6063E0344B8C
S1135FB000221A60FDF7A2FD0246324B1A60314BF3
S1135FC01A68314B1B689A4209D9304B1B68596DCA
S1135FD02C4A10682C4A1268821A0A445A65294BC2
S1135FE01A68294B1A60294B1B681A68274B1B68CF
S1135FF01B6B9A4208D8254B1A68244B1B68343310
